{
  "_format": "hh-sol-artifact-1",
  "contractName": "ContentPayment",
  "sourceName": "contracts/ContentPayment.sol",
  "abi": [
    {
      "anonymous": false,
      "inputs": [
        {
          "indexed": true,
          "internalType": "uint256",
          "name": "contentId",
          "type": "uint256"
        },
        {
          "indexed": true,
          "internalType": "address",
          "name": "creator",
          "type": "address"
        },
        {
          "indexed": false,
          "internalType": "string",
          "name": "title",
          "type": "string"
        },
        {
          "indexed": false,
          "internalType": "uint256",
          "name": "price",
          "type": "uint256"
        }
      ],
      "name": "ContentCreated",
      "type": "event"
    },
    {
      "anonymous": false,
      "inputs": [
        {
          "indexed": true,
          "internalType": "uint256",
          "name": "contentId",
          "type": "uint256"
        },
        {
          "indexed": true,
          "internalType": "address",
          "name": "buyer",
          "type": "address"
        },
        {
          "indexed": true,
          "internalType": "address",
          "name": "creator",
          "type": "address"
        },
        {
          "indexed": false,
          "internalType": "uint256",
          "name": "price",
          "type": "uint256"
        }
      ],
      "name": "ContentPurchased",
      "type": "event"
    },
    {
      "anonymous": false,
      "inputs": [
        {
          "indexed": true,
          "internalType": "uint256",
          "name": "contentId",
          "type": "uint256"
        },
        {
          "indexed": false,
          "internalType": "uint256",
          "name": "newPrice",
          "type": "uint256"
        }
      ],
      "name": "ContentUpdated",
      "type": "event"
    },
    {
      "inputs": [
        {
          "internalType": "uint256",
          "name": "",
          "type": "uint256"
        }
      ],
      "name": "contents",
      "outputs": [
        {
          "internalType": "uint256",
          "name": "contentId",
          "type": "uint256"
        },
        {
          "internalType": "address",
          "name": "creator",
          "type": "address"
        },
        {
          "internalType": "string",
          "name": "title",
          "type": "string"
        },
        {
          "internalType": "string",
          "name": "contentHash",
          "type": "string"
        },
        {
          "internalType": "uint256",
          "name": "price",
          "type": "uint256"
        },
        {
          "internalType": "uint256",
          "name": "createdAt",
          "type": "uint256"
        },
        {
          "internalType": "bool",
          "name": "isActive",
          "type": "bool"
        }
      ],
      "stateMutability": "view",
      "type": "function"
    },
    {
      "inputs": [
        {
          "internalType": "address",
          "name": "_creator",
          "type": "address"
        },
        {
          "internalType": "string",
          "name": "_title",
          "type": "string"
        },
        {
          "internalType": "string",
          "name": "_contentHash",
          "type": "string"
        },
        {
          "internalType": "uint256",
          "name": "_price",
          "type": "uint256"
        }
      ],
      "name": "createContent",
      "outputs": [
        {
          "internalType": "uint256",
          "name": "",
          "type": "uint256"
        }
      ],
      "stateMutability": "nonpayable",
      "type": "function"
    },
    {
      "inputs": [
        {
          "internalType": "address",
          "name": "",
          "type": "address"
        },
        {
          "internalType": "uint256",
          "name": "",
          "type": "uint256"
        }
      ],
      "name": "creatorContents",
      "outputs": [
        {
          "internalType": "uint256",
          "name": "",
          "type": "uint256"
        }
      ],
      "stateMutability": "view",
      "type": "function"
    },
    {
      "inputs": [
        {
          "internalType": "uint256",
          "name": "_contentId",
          "type": "uint256"
        }
      ],
      "name": "deactivateContent",
      "outputs": [],
      "stateMutability": "nonpayable",
      "type": "function"
    },
    {
      "inputs": [
        {
          "internalType": "uint256",
          "name": "_contentId",
          "type": "uint256"
        }
      ],
      "name": "getContent",
      "outputs": [
        {
          "components": [
            {
              "internalType": "uint256",
              "name": "contentId",
              "type": "uint256"
            },
            {
              "internalType": "address",
              "name": "creator",
              "type": "address"
            },
            {
              "internalType": "string",
              "name": "title",
              "type": "string"
            },
            {
              "internalType": "string",
              "name": "contentHash",
              "type": "string"
            },
            {
              "internalType": "uint256",
              "name": "price",
              "type": "uint256"
            },
            {
              "internalType": "uint256",
              "name": "createdAt",
              "type": "uint256"
            },
            {
              "internalType": "bool",
              "name": "isActive",
              "type": "bool"
            }
          ],
          "internalType": "struct ContentPayment.Content",
          "name": "",
          "type": "tuple"
        }
      ],
      "stateMutability": "view",
      "type": "function"
    },
    {
      "inputs": [
        {
          "internalType": "address",
          "name": "_creator",
          "type": "address"
        }
      ],
      "name": "getCreatorContent",
      "outputs": [
        {
          "internalType": "uint256[]",
          "name": "",
          "type": "uint256[]"
        }
      ],
      "stateMutability": "view",
      "type": "function"
    },
    {
      "inputs": [
        {
          "internalType": "address",
          "name": "_user",
          "type": "address"
        },
        {
          "internalType": "uint256",
          "name": "_contentId",
          "type": "uint256"
        }
      ],
      "name": "hasAccess",
      "outputs": [
        {
          "internalType": "bool",
          "name": "",
          "type": "bool"
        }
      ],
      "stateMutability": "view",
      "type": "function"
    },
    {
      "inputs": [],
      "name": "nextContentId",
      "outputs": [
        {
          "internalType": "uint256",
          "name": "",
          "type": "uint256"
        }
      ],
      "stateMutability": "view",
      "type": "function"
    },
    {
      "inputs": [
        {
          "internalType": "address",
          "name": "_buyer",
          "type": "address"
        },
        {
          "internalType": "uint256",
          "name": "_contentId",
          "type": "uint256"
        }
      ],
      "name": "purchaseContent",
      "outputs": [],
      "stateMutability": "payable",
      "type": "function"
    },
    {
      "inputs": [],
      "name": "totalRevenue",
      "outputs": [
        {
          "internalType": "uint256",
          "name": "",
          "type": "uint256"
        }
      ],
      "stateMutability": "view",
      "type": "function"
    },
    {
      "inputs": [
        {
          "internalType": "uint256",
          "name": "_contentId",
          "type": "uint256"
        },
        {
          "internalType": "uint256",
          "name": "_newPrice",
          "type": "uint256"
        }
      ],
      "name": "updateContentPrice",
      "outputs": [],
      "stateMutability": "nonpayable",
      "type": "function"
    },
    {
      "inputs": [
        {
          "internalType": "address",
          "name": "",
          "type": "address"
        },
        {
          "internalType": "uint256",
          "name": "",
          "type": "uint256"
        }
      ],
      "name": "userAccess",
      "outputs": [
        {
          "internalType": "bool",
          "name": "",
          "type": "bool"
        }
      ],
      "stateMutability": "view",
      "type": "function"
    }
  ],
  "bytecode": "0x6080604052600160035534801561001557600080fd5b50611445806100256000396000f3fe6080604052600436106100a75760003560e01c8063b5ecf91211610064578063b5ecf91214610188578063bf2d9e0b146101bb578063c1d89f2d146101d1578063c6530e41146101f1578063c82d3a5514610221578063f2d0811f1461025c57600080fd5b8063011c6756146100ac5780630a248d7f146100e25780630b7ad54c1461010657806326d38f0314610133578063401a96851461014857806387a38dbe14610168575b600080fd5b3480156100b857600080fd5b506100cc6100c7366004610f13565b61027c565b6040516100d99190610f35565b60405180910390f35b3480156100ee57600080fd5b506100f860035481565b6040519081526020016100d9565b34801561011257600080fd5b50610126610121366004610f79565b6102e8565b6040516100d99190610fd8565b61014661014136600461105b565b6104f3565b005b34801561015457600080fd5b506100f861016336600461105b565b610914565b34801561017457600080fd5b50610146610183366004611085565b610945565b34801561019457600080fd5b506101a86101a3366004610f79565b610a64565b6040516100d997969594939291906110a7565b3480156101c757600080fd5b506100f860045481565b3480156101dd57600080fd5b506100f86101ec3660046111a8565b610bbe565b3480156101fd57600080fd5b5061021161020c36600461105b565b610e00565b60405190151581526020016100d9565b34801561022d57600080fd5b5061021161023c36600461105b565b600160209081526000928352604080842090915290825290205460ff1681565b34801561026857600080fd5b50610146610277366004610f79565b610e5b565b6001600160a01b0381166000908152600260209081526040918290208054835181840281018401909452808452606093928301828280156102dc57602002820191906000526020600020905b8154815260200190600101908083116102c8575b50505050509050919050565b6103336040518060e001604052806000815260200160006001600160a01b03168152602001606081526020016060815260200160008152602001600081526020016000151581525090565b60008281526020819052604090206006015460ff1661036d5760405162461bcd60e51b815260040161036490611224565b60405180910390fd5b60008281526020818152604091829020825160e0810184528154815260018201546001600160a01b03169281019290925260028101805492939192918401916103b59061124f565b80601f01602080910402602001604051908101604052809291908181526020018280546103e19061124f565b801561042e5780601f106104035761010080835404028352916020019161042e565b820191906000526020600020905b81548152906001019060200180831161041157829003601f168201915b505050505081526020016003820180546104479061124f565b80601f01602080910402602001604051908101604052809291908181526020018280546104739061124f565b80156104c05780601f10610495576101008083540402835291602001916104c0565b820191906000526020600020905b8154815290600101906020018083116104a357829003601f168201915b5050509183525050600482015460208201526005820154604082015260069091015460ff16151560609091015292915050565b600081815260208181526040808320815160e0810183528154815260018201546001600160a01b03169381019390935260028101805491928401916105379061124f565b80601f01602080910402602001604051908101604052809291908181526020018280546105639061124f565b80156105b05780601f10610585576101008083540402835291602001916105b0565b820191906000526020600020905b81548152906001019060200180831161059357829003601f168201915b505050505081526020016003820180546105c99061124f565b80601f01602080910402602001604051908101604052809291908181526020018280546105f59061124f565b80156106425780601f1061061757610100808354040283529160200191610642565b820191906000526020600020905b81548152906001019060200180831161062557829003601f168201915b5050509183525050600482015460208201526005820154604082015260069091015460ff16151560609091015260c08101519091506106c35760405162461bcd60e51b815260206004820152601d60248201527f436f6e74656e74206e6f7420666f756e64206f7220696e6163746976650000006044820152606401610364565b806080015134101561070e5760405162461bcd60e51b8152602060048201526014602482015273125b9cdd59999a58da595b9d081c185e5b595b9d60621b6044820152606401610364565b6001600160a01b038316600090815260016020908152604080832085845290915290205460ff16156107765760405162461bcd60e51b8152602060048201526011602482015270105b1c9958591e481c1d5c98da185cd959607a1b6044820152606401610364565b80602001516001600160a01b0316836001600160a01b0316036107e95760405162461bcd60e51b815260206004820152602560248201527f43726561746f72732063616e6e6f7420627579207468656972206f776e20636f6044820152641b9d195b9d60da1b6064820152608401610364565b6001600160a01b0380841660009081526001602081815260408084208785528252808420805460ff19169093179092558401516080850151915193169281156108fc0292818181858888f1935050505015801561084a573d6000803e3d6000fd5b50806080015160046000828254610861919061129f565b909155505060808101513411156108b957826001600160a01b03166108fc82608001513461088f91906112b2565b6040518115909202916000818181858888f193505050501580156108b7573d6000803e3d6000fd5b505b80602001516001600160a01b0316836001600160a01b0316837fc811c19bfae6d1db7d73b36678b8cdd72e1617d50e39f87a7593c5079381fd28846080015160405161090791815260200190565b60405180910390a4505050565b6002602052816000526040600020818154811061093057600080fd5b90600052602060002001600091509150505481565b6000828152602081905260409020600681015460ff166109775760405162461bcd60e51b815260040161036490611224565b60018101546001600160a01b031633146109d35760405162461bcd60e51b815260206004820152601760248201527f4f6e6c792063726561746f722063616e207570646174650000000000000000006044820152606401610364565b60008211610a235760405162461bcd60e51b815260206004820152601c60248201527f5072696365206d7573742062652067726561746572207468616e2030000000006044820152606401610364565b6004810182905560405182815283907fe76606b9d4b8687899b722bffc2b3381298f848f245f2c545da7fd5d62d7a8259060200160405180910390a2505050565b60006020819052908152604090208054600182015460028301805492936001600160a01b0390921692610a969061124f565b80601f0160208091040260200160405190810160405280929190818152602001828054610ac29061124f565b8015610b0f5780601f10610ae457610100808354040283529160200191610b0f565b820191906000526020600020905b815481529060010190602001808311610af257829003601f168201915b505050505090806003018054610b249061124f565b80601f0160208091040260200160405190810160405280929190818152602001828054610b509061124f565b8015610b9d5780601f10610b7257610100808354040283529160200191610b9d565b820191906000526020600020905b815481529060010190602001808311610b8057829003601f168201915b50505050600483015460058401546006909401549293909290915060ff1687565b600080845111610c085760405162461bcd60e51b81526020600482015260156024820152745469746c652063616e6e6f7420626520656d70747960581b6044820152606401610364565b6000835111610c595760405162461bcd60e51b815260206004820152601c60248201527f436f6e74656e7420686173682063616e6e6f7420626520656d707479000000006044820152606401610364565b60008211610ca95760405162461bcd60e51b815260206004820152601c60248201527f5072696365206d7573742062652067726561746572207468616e2030000000006044820152606401610364565b6003546040805160e0810182528281526001600160a01b0388811660208084019182528385018a8152606085018a9052608085018990524260a0860152600160c086018190526000888152928390529590912084518155915194820180546001600160a01b031916959093169490941790915591519091906002820190610d309082611314565b5060608201516003820190610d459082611314565b506080820151600482015560a0820151600582015560c0909101516006909101805460ff19169115159190911790556001600160a01b038616600090815260026020908152604082208054600181018255908352908220018290556003805491610dae836113d4565b9190505550856001600160a01b0316817f412c27a7318aac9979dd1ff80a6b3eb3bc35c9a8c22b7b75d7959605180ab9ac8786604051610def9291906113ed565b60405180910390a395945050505050565b6000818152602081905260408120600101546001600160a01b03808516911603610e2c57506001610e55565b506001600160a01b038216600090815260016020908152604080832084845290915290205460ff165b92915050565b6000818152602081905260409020600681015460ff16610e8d5760405162461bcd60e51b815260040161036490611224565b60018101546001600160a01b03163314610ee95760405162461bcd60e51b815260206004820152601b60248201527f4f6e6c792063726561746f722063616e206465616374697661746500000000006044820152606401610364565b600601805460ff1916905550565b80356001600160a01b0381168114610f0e57600080fd5b919050565b600060208284031215610f2557600080fd5b610f2e82610ef7565b9392505050565b6020808252825182820181905260009190848201906040850190845b81811015610f6d57835183529284019291840191600101610f51565b50909695505050505050565b600060208284031215610f8b57600080fd5b5035919050565b6000815180845260005b81811015610fb857602081850181015186830182015201610f9c565b506000602082860101526020601f19601f83011685010191505092915050565b602081528151602082015260018060a01b0360208301511660408201526000604083015160e06060840152611011610100840182610f92565b90506060840151601f1984830301608085015261102e8282610f92565b915050608084015160a084015260a084015160c084015260c0840151151560e08401528091505092915050565b6000806040838503121561106e57600080fd5b61107783610ef7565b946020939093013593505050565b6000806040838503121561109857600080fd5b50508035926020909101359150565b8781526001600160a01b038716602082015260e0604082018190526000906110d190830188610f92565b82810360608401526110e38188610f92565b6080840196909652505060a0810192909252151560c090910152949350505050565b634e487b7160e01b600052604160045260246000fd5b600082601f83011261112c57600080fd5b813567ffffffffffffffff8082111561114757611147611105565b604051601f8301601f19908116603f0116810190828211818310171561116f5761116f611105565b8160405283815286602085880101111561118857600080fd5b836020870160208301376000602085830101528094505050505092915050565b600080600080608085870312156111be57600080fd5b6111c785610ef7565b9350602085013567ffffffffffffffff808211156111e457600080fd5b6111f08883890161111b565b9450604087013591508082111561120657600080fd5b506112138782880161111b565b949793965093946060013593505050565b60208082526011908201527010dbdb9d195b9d081b9bdd08199bdd5b99607a1b604082015260600190565b600181811c9082168061126357607f821691505b60208210810361128357634e487b7160e01b600052602260045260246000fd5b50919050565b634e487b7160e01b600052601160045260246000fd5b80820180821115610e5557610e55611289565b81810381811115610e5557610e55611289565b601f82111561130f57600081815260208120601f850160051c810160208610156112ec5750805b601f850160051c820191505b8181101561130b578281556001016112f8565b5050505b505050565b815167ffffffffffffffff81111561132e5761132e611105565b6113428161133c845461124f565b846112c5565b602080601f831160018114611377576000841561135f5750858301515b600019600386901b1c1916600185901b17855561130b565b600085815260208120601f198616915b828110156113a657888601518255948401946001909101908401611387565b50858210156113c45787850151600019600388901b60f8161c191681555b5050505050600190811b01905550565b6000600182016113e6576113e6611289565b5060010190565b6040815260006114006040830185610f92565b9050826020830152939250505056fea264697066735822122033a17244f7d5a5e7a21283a03a64223e487a1e4dcdf1a0fc102274b007de843364736f6c63430008140033",
  "linkReferences": {},
  "deployedLinkReferences": {}
}