{
  "_format": "hh-sol-artifact-1",
  "contractName": "CreatorProfile",
  "sourceName": "contracts/CreatorProfile.sol",
  "abi": [
    {
      "anonymous": false,
      "inputs": [
        {
          "indexed": true,
          "internalType": "address",
          "name": "wallet",
          "type": "address"
        },
        {
          "indexed": false,
          "internalType": "string",
          "name": "username",
          "type": "string"
        },
        {
          "indexed": false,
          "internalType": "uint256",
          "name": "timestamp",
          "type": "uint256"
        }
      ],
      "name": "CreatorRegistered",
      "type": "event"
    },
    {
      "anonymous": false,
      "inputs": [
        {
          "indexed": true,
          "internalType": "address",
          "name": "wallet",
          "type": "address"
        },
        {
          "indexed": false,
          "internalType": "string",
          "name": "username",
          "type": "string"
        },
        {
          "indexed": false,
          "internalType": "uint256",
          "name": "timestamp",
          "type": "uint256"
        }
      ],
      "name": "CreatorUpdated",
      "type": "event"
    },
    {
      "inputs": [
        {
          "internalType": "address",
          "name": "",
          "type": "address"
        }
      ],
      "name": "creators",
      "outputs": [
        {
          "internalType": "string",
          "name": "username",
          "type": "string"
        },
        {
          "internalType": "string",
          "name": "bio",
          "type": "string"
        },
        {
          "internalType": "address",
          "name": "wallet",
          "type": "address"
        },
        {
          "internalType": "uint256",
          "name": "createdAt",
          "type": "uint256"
        },
        {
          "internalType": "bool",
          "name": "isActive",
          "type": "bool"
        }
      ],
      "stateMutability": "view",
      "type": "function"
    },
    {
      "inputs": [
        {
          "internalType": "address",
          "name": "_wallet",
          "type": "address"
        }
      ],
      "name": "getCreator",
      "outputs": [
        {
          "components": [
            {
              "internalType": "string",
              "name": "username",
              "type": "string"
            },
            {
              "internalType": "string",
              "name": "bio",
              "type": "string"
            },
            {
              "internalType": "address",
              "name": "wallet",
              "type": "address"
            },
            {
              "internalType": "uint256",
              "name": "createdAt",
              "type": "uint256"
            },
            {
              "internalType": "bool",
              "name": "isActive",
              "type": "bool"
            }
          ],
          "internalType": "struct CreatorProfile.Creator",
          "name": "",
          "type": "tuple"
        }
      ],
      "stateMutability": "view",
      "type": "function"
    },
    {
      "inputs": [
        {
          "internalType": "address",
          "name": "_wallet",
          "type": "address"
        }
      ],
      "name": "isCreator",
      "outputs": [
        {
          "internalType": "bool",
          "name": "",
          "type": "bool"
        }
      ],
      "stateMutability": "view",
      "type": "function"
    },
    {
      "inputs": [
        {
          "internalType": "address",
          "name": "_creator",
          "type": "address"
        },
        {
          "internalType": "string",
          "name": "_username",
          "type": "string"
        },
        {
          "internalType": "string",
          "name": "_bio",
          "type": "string"
        }
      ],
      "name": "registerCreator",
      "outputs": [],
      "stateMutability": "nonpayable",
      "type": "function"
    },
    {
      "inputs": [],
      "name": "totalCreators",
      "outputs": [
        {
          "internalType": "uint256",
          "name": "",
          "type": "uint256"
        }
      ],
      "stateMutability": "view",
      "type": "function"
    },
    {
      "inputs": [
        {
          "internalType": "string",
          "name": "_username",
          "type": "string"
        },
        {
          "internalType": "string",
          "name": "_bio",
          "type": "string"
        }
      ],
      "name": "updateCreator",
      "outputs": [],
      "stateMutability": "nonpayable",
      "type": "function"
    }
  ],
  "bytecode": "0x608060405234801561001057600080fd5b50610d0f806100206000396000f3fe608060405234801561001057600080fd5b50600436106100625760003560e01c806311c0036c1461006757806312588c171461008357806382675a6f14610098578063933166e1146100ab578063a0210309146100cf578063efd46065146100ef575b600080fd5b61007060015481565b6040519081526020015b60405180910390f35b61009661009136600461094b565b61012e565b005b6100966100a63660046109bf565b61037d565b6100be6100b9366004610a23565b61052a565b60405161007a959493929190610a8b565b6100e26100dd366004610a23565b610677565b60405161007a9190610ad9565b61011e6100fd366004610a23565b6001600160a01b031660009081526020819052604090206004015460ff1690565b604051901515815260200161007a565b600082511161017f5760405162461bcd60e51b8152602060048201526018602482015277557365726e616d652063616e6e6f7420626520656d70747960401b60448201526064015b60405180910390fd5b6032825111156101c55760405162461bcd60e51b8152602060048201526011602482015270557365726e616d6520746f6f206c6f6e6760781b6044820152606401610176565b6101f4815111156102075760405162461bcd60e51b815260206004820152600c60248201526b42696f20746f6f206c6f6e6760a01b6044820152606401610176565b6001600160a01b03831660009081526020819052604090206004015460ff16156102735760405162461bcd60e51b815260206004820152601a60248201527f43726561746f7220616c726561647920726567697374657265640000000000006044820152606401610176565b6040805160a08101825283815260208082018490526001600160a01b0386168284018190524260608401526001608084015260009081529081905291909120815181906102c09082610bd0565b50602082015160018201906102d59082610bd0565b5060408201516002820180546001600160a01b0319166001600160a01b03909216919091179055606082015160038201556080909101516004909101805460ff19169115159190911790556001805490600061033083610c90565b9190505550826001600160a01b03167fbf620853fd890bc166209817a64206f57de9aa2bc196bd5bab92d17a38d6515d8342604051610370929190610cb7565b60405180910390a2505050565b3360009081526020819052604090206004015460ff166103d85760405162461bcd60e51b815260206004820152601660248201527510dc99585d1bdc881b9bdd081c9959da5cdd195c995960521b6044820152606401610176565b60008251116104245760405162461bcd60e51b8152602060048201526018602482015277557365726e616d652063616e6e6f7420626520656d70747960401b6044820152606401610176565b60328251111561046a5760405162461bcd60e51b8152602060048201526011602482015270557365726e616d6520746f6f206c6f6e6760781b6044820152606401610176565b6101f4815111156104ac5760405162461bcd60e51b815260206004820152600c60248201526b42696f20746f6f206c6f6e6760a01b6044820152606401610176565b3360009081526020819052604090206104c58382610bd0565b503360009081526020819052604090206001016104e28282610bd0565b50336001600160a01b03167f047e876438a6eedbcf33c1be7c8074932e9a0d6773f6610d1be06940d7bdfe42834260405161051e929190610cb7565b60405180910390a25050565b60006020819052908152604090208054819061054590610b47565b80601f016020809104026020016040519081016040528092919081815260200182805461057190610b47565b80156105be5780601f10610593576101008083540402835291602001916105be565b820191906000526020600020905b8154815290600101906020018083116105a157829003601f168201915b5050505050908060010180546105d390610b47565b80601f01602080910402602001604051908101604052809291908181526020018280546105ff90610b47565b801561064c5780601f106106215761010080835404028352916020019161064c565b820191906000526020600020905b81548152906001019060200180831161062f57829003601f168201915b505050506002830154600384015460049094015492936001600160a01b039091169290915060ff1685565b6106b46040518060a00160405280606081526020016060815260200160006001600160a01b03168152602001600081526020016000151581525090565b6001600160a01b03821660009081526020819052604090206004015460ff166107135760405162461bcd60e51b815260206004820152601160248201527010dc99585d1bdc881b9bdd08199bdd5b99607a1b6044820152606401610176565b6001600160a01b03821660009081526020819052604090819020815160a0810190925280548290829061074590610b47565b80601f016020809104026020016040519081016040528092919081815260200182805461077190610b47565b80156107be5780601f10610793576101008083540402835291602001916107be565b820191906000526020600020905b8154815290600101906020018083116107a157829003601f168201915b505050505081526020016001820180546107d790610b47565b80601f016020809104026020016040519081016040528092919081815260200182805461080390610b47565b80156108505780601f1061082557610100808354040283529160200191610850565b820191906000526020600020905b81548152906001019060200180831161083357829003601f168201915b505050918352505060028201546001600160a01b031660208201526003820154604082015260049091015460ff16151560609091015292915050565b80356001600160a01b03811681146108a357600080fd5b919050565b634e487b7160e01b600052604160045260246000fd5b600082601f8301126108cf57600080fd5b813567ffffffffffffffff808211156108ea576108ea6108a8565b604051601f8301601f19908116603f01168101908282118183101715610912576109126108a8565b8160405283815286602085880101111561092b57600080fd5b836020870160208301376000602085830101528094505050505092915050565b60008060006060848603121561096057600080fd5b6109698461088c565b9250602084013567ffffffffffffffff8082111561098657600080fd5b610992878388016108be565b935060408601359150808211156109a857600080fd5b506109b5868287016108be565b9150509250925092565b600080604083850312156109d257600080fd5b823567ffffffffffffffff808211156109ea57600080fd5b6109f6868387016108be565b93506020850135915080821115610a0c57600080fd5b50610a19858286016108be565b9150509250929050565b600060208284031215610a3557600080fd5b610a3e8261088c565b9392505050565b6000815180845260005b81811015610a6b57602081850181015186830182015201610a4f565b506000602082860101526020601f19601f83011685010191505092915050565b60a081526000610a9e60a0830188610a45565b8281036020840152610ab08188610a45565b6001600160a01b0396909616604084015250506060810192909252151560809091015292915050565b602081526000825160a06020840152610af560c0840182610a45565b90506020840151601f19848303016040850152610b128282610a45565b91505060018060a01b036040850151166060840152606084015160808401526080840151151560a08401528091505092915050565b600181811c90821680610b5b57607f821691505b602082108103610b7b57634e487b7160e01b600052602260045260246000fd5b50919050565b601f821115610bcb57600081815260208120601f850160051c81016020861015610ba85750805b601f850160051c820191505b81811015610bc757828155600101610bb4565b5050505b505050565b815167ffffffffffffffff811115610bea57610bea6108a8565b610bfe81610bf88454610b47565b84610b81565b602080601f831160018114610c335760008415610c1b5750858301515b600019600386901b1c1916600185901b178555610bc7565b600085815260208120601f198616915b82811015610c6257888601518255948401946001909101908401610c43565b5085821015610c805787850151600019600388901b60f8161c191681555b5050505050600190811b01905550565b600060018201610cb057634e487b7160e01b600052601160045260246000fd5b5060010190565b604081526000610cca6040830185610a45565b9050826020830152939250505056fea2646970667358221220ec0264726b977094c39ee71c85c2af82d75e27e9ff9a35ccae4fb3f3900fc03664736f6c63430008140033",
  "linkReferences": {},
  "deployedLinkReferences": {}
}