{
  "_format": "hh-sol-artifact-1",
  "contractName": "GlamoraHub",
  "sourceName": "contracts/GlamoraHub.sol",
  "abi": [
    {
      "inputs": [],
      "stateMutability": "nonpayable",
      "type": "constructor"
    },
    {
      "anonymous": false,
      "inputs": [
        {
          "indexed": true,
          "internalType": "address",
          "name": "creator",
          "type": "address"
        },
        {
          "indexed": true,
          "internalType": "uint256",
          "name": "contentId",
          "type": "uint256"
        }
      ],
      "name": "CreatorRegisteredAndContentCreated",
      "type": "event"
    },
    {
      "anonymous": false,
      "inputs": [
        {
          "indexed": false,
          "internalType": "address",
          "name": "creatorProfileAddress",
          "type": "address"
        },
        {
          "indexed": false,
          "internalType": "address",
          "name": "contentPaymentAddress",
          "type": "address"
        }
      ],
      "name": "PlatformInitialized",
      "type": "event"
    },
    {
      "inputs": [],
      "name": "contentPayment",
      "outputs": [
        {
          "internalType": "contract ContentPayment",
          "name": "",
          "type": "address"
        }
      ],
      "stateMutability": "view",
      "type": "function"
    },
    {
      "inputs": [
        {
          "internalType": "string",
          "name": "title",
          "type": "string"
        },
        {
          "internalType": "string",
          "name": "contentHash",
          "type": "string"
        },
        {
          "internalType": "uint256",
          "name": "price",
          "type": "uint256"
        }
      ],
      "name": "createContent",
      "outputs": [
        {
          "internalType": "uint256",
          "name": "",
          "type": "uint256"
        }
      ],
      "stateMutability": "nonpayable",
      "type": "function"
    },
    {
      "inputs": [],
      "name": "creatorProfile",
      "outputs": [
        {
          "internalType": "contract CreatorProfile",
          "name": "",
          "type": "address"
        }
      ],
      "stateMutability": "view",
      "type": "function"
    },
    {
      "inputs": [],
      "name": "getContractAddresses",
      "outputs": [
        {
          "internalType": "address",
          "name": "creatorProfileAddr",
          "type": "address"
        },
        {
          "internalType": "address",
          "name": "contentPaymentAddr",
          "type": "address"
        }
      ],
      "stateMutability": "view",
      "type": "function"
    },
    {
      "inputs": [],
      "name": "getPlatformStats",
      "outputs": [
        {
          "internalType": "uint256",
          "name": "totalCreators",
          "type": "uint256"
        },
        {
          "internalType": "uint256",
          "name": "totalContent",
          "type": "uint256"
        },
        {
          "internalType": "uint256",
          "name": "totalRevenue",
          "type": "uint256"
        }
      ],
      "stateMutability": "view",
      "type": "function"
    },
    {
      "inputs": [
        {
          "internalType": "address",
          "name": "user",
          "type": "address"
        },
        {
          "internalType": "uint256",
          "name": "contentId",
          "type": "uint256"
        }
      ],
      "name": "hasAccessToContent",
      "outputs": [
        {
          "internalType": "bool",
          "name": "",
          "type": "bool"
        }
      ],
      "stateMutability": "view",
      "type": "function"
    },
    {
      "inputs": [
        {
          "internalType": "address",
          "name": "user",
          "type": "address"
        }
      ],
      "name": "isCreator",
      "outputs": [
        {
          "internalType": "bool",
          "name": "",
          "type": "bool"
        }
      ],
      "stateMutability": "view",
      "type": "function"
    },
    {
      "inputs": [],
      "name": "owner",
      "outputs": [
        {
          "internalType": "address",
          "name": "",
          "type": "address"
        }
      ],
      "stateMutability": "view",
      "type": "function"
    },
    {
      "inputs": [],
      "name": "platformFee",
      "outputs": [
        {
          "internalType": "uint256",
          "name": "",
          "type": "uint256"
        }
      ],
      "stateMutability": "view",
      "type": "function"
    },
    {
      "inputs": [
        {
          "internalType": "uint256",
          "name": "contentId",
          "type": "uint256"
        }
      ],
      "name": "purchaseContent",
      "outputs": [],
      "stateMutability": "payable",
      "type": "function"
    },
    {
      "inputs": [
        {
          "internalType": "string",
          "name": "username",
          "type": "string"
        },
        {
          "internalType": "string",
          "name": "bio",
          "type": "string"
        },
        {
          "internalType": "string",
          "name": "title",
          "type": "string"
        },
        {
          "internalType": "string",
          "name": "contentHash",
          "type": "string"
        },
        {
          "internalType": "uint256",
          "name": "price",
          "type": "uint256"
        }
      ],
      "name": "registerAndCreateContent",
      "outputs": [
        {
          "internalType": "uint256",
          "name": "",
          "type": "uint256"
        }
      ],
      "stateMutability": "nonpayable",
      "type": "function"
    },
    {
      "inputs": [
        {
          "internalType": "string",
          "name": "username",
          "type": "string"
        },
        {
          "internalType": "string",
          "name": "bio",
          "type": "string"
        }
      ],
      "name": "registerCreator",
      "outputs": [],
      "stateMutability": "nonpayable",
      "type": "function"
    },
    {
      "inputs": [
        {
          "internalType": "uint256",
          "name": "_newFee",
          "type": "uint256"
        }
      ],
      "name": "updatePlatformFee",
      "outputs": [],
      "stateMutability": "nonpayable",
      "type": "function"
    }
  ],
  "bytecode": "0x608060405234801561001057600080fd5b50600280546001600160a01b031916331790556000600355604051610034906100fe565b604051809103906000f080158015610050573d6000803e3d6000fd5b50600080546001600160a01b0319166001600160a01b039290921691909117905560405161007d9061010b565b604051809103906000f080158015610099573d6000803e3d6000fd5b50600180546001600160a01b0319166001600160a01b039283169081179091556000546040805191909316815260208101919091527feb8f547360e47709df3ed2fb3d68983529ee3bf1dc33c07d585ad3c521b80076910160405180910390a1610118565b610d2f80610e7983390190565b61146a80611ba883390190565b610d52806101276000396000f3fe6080604052600436106100c25760003560e01c8063953874d21161007f578063b9f8d3b411610059578063b9f8d3b414610220578063ca9135af14610240578063efd4606514610270578063f2f658ba1461029057600080fd5b8063953874d2146101ad578063a36d373d146101e0578063aa0b59881461020057600080fd5b8063136d8883146100c757806313d8d193146100fc578063252a8caa1461012a57806326232a2e1461014a57806328f2ac28146101605780638da5cb5b14610175575b600080fd5b3480156100d357600080fd5b506100dc6102b0565b604080519384526020840192909252908201526060015b60405180910390f35b34801561010857600080fd5b5061011c6101173660046109eb565b61042f565b6040519081526020016100f3565b34801561013657600080fd5b5061011c610145366004610aa0565b6105bb565b34801561015657600080fd5b5061011c60035481565b61017361016e366004610b0d565b6106fa565b005b34801561018157600080fd5b50600254610195906001600160a01b031681565b6040516001600160a01b0390911681526020016100f3565b3480156101b957600080fd5b50600054600154604080516001600160a01b039384168152929091166020830152016100f3565b3480156101ec57600080fd5b50600054610195906001600160a01b031681565b34801561020c57600080fd5b5061017361021b366004610b0d565b610763565b34801561022c57600080fd5b5061017361023b366004610b26565b61080c565b34801561024c57600080fd5b5061026061025b366004610ba6565b61085a565b60405190151581526020016100f3565b34801561027c57600080fd5b5061026061028b366004610bd0565b6108d9565b34801561029c57600080fd5b50600154610195906001600160a01b031681565b60008060008060009054906101000a90046001600160a01b03166001600160a01b03166311c0036c6040518163ffffffff1660e01b8152600401602060405180830381865afa158015610307573d6000803e3d6000fd5b505050506040513d601f19601f8201168201806040525081019061032b9190610beb565b925060018060009054906101000a90046001600160a01b03166001600160a01b0316630a248d7f6040518163ffffffff1660e01b8152600401602060405180830381865afa158015610381573d6000803e3d6000fd5b505050506040513d601f19601f820116820180604052508101906103a59190610beb565b6103af9190610c04565b9150600160009054906101000a90046001600160a01b03166001600160a01b031663bf2d9e0b6040518163ffffffff1660e01b8152600401602060405180830381865afa158015610404573d6000803e3d6000fd5b505050506040513d601f19601f820116820180604052508101906104289190610beb565b9050909192565b6000805460405163efd4606560e01b81523360048201526001600160a01b039091169063efd4606590602401602060405180830381865afa158015610478573d6000803e3d6000fd5b505050506040513d601f19601f8201168201806040525081019061049c9190610c25565b610507576000546040516312588c1760e01b81526001600160a01b03909116906312588c17906104d49033908a908a90600401610c94565b600060405180830381600087803b1580156104ee57600080fd5b505af1158015610502573d6000803e3d6000fd5b505050505b60015460405163c1d89f2d60e01b81526000916001600160a01b03169063c1d89f2d9061053e903390899089908990600401610cd4565b6020604051808303816000875af115801561055d573d6000803e3d6000fd5b505050506040513d601f19601f820116820180604052508101906105819190610beb565b604051909150819033907ffa3430728d500f0d7d07abcf912ddbab683786c52fd82a3ce9b1d961ed6af44090600090a39695505050505050565b6000805460405163efd4606560e01b81523360048201526001600160a01b039091169063efd4606590602401602060405180830381865afa158015610604573d6000803e3d6000fd5b505050506040513d601f19601f820116820180604052508101906106289190610c25565b6106795760405162461bcd60e51b815260206004820152601a60248201527f4d75737420626520726567697374657265642063726561746f7200000000000060448201526064015b60405180910390fd5b60015460405163c1d89f2d60e01b81526001600160a01b039091169063c1d89f2d906106af903390889088908890600401610cd4565b6020604051808303816000875af11580156106ce573d6000803e3d6000fd5b505050506040513d601f19601f820116820180604052508101906106f29190610beb565b949350505050565b6001546040516326d38f0360e01b8152336004820152602481018390526001600160a01b03909116906326d38f039034906044016000604051808303818588803b15801561074757600080fd5b505af115801561075b573d6000803e3d6000fd5b505050505050565b6002546001600160a01b031633146107bd5760405162461bcd60e51b815260206004820152601960248201527f4f6e6c79206f776e65722063616e2075706461746520666565000000000000006044820152606401610670565b6103e88111156108075760405162461bcd60e51b81526020600482015260156024820152744665652063616e6e6f74206578636565642031302560581b6044820152606401610670565b600355565b6000546040516312588c1760e01b81526001600160a01b03909116906312588c179061084090339086908690600401610c94565b600060405180830381600087803b15801561074757600080fd5b60015460405163c6530e4160e01b81526001600160a01b03848116600483015260248201849052600092169063c6530e4190604401602060405180830381865afa1580156108ac573d6000803e3d6000fd5b505050506040513d601f19601f820116820180604052508101906108d09190610c25565b90505b92915050565b6000805460405163efd4606560e01b81526001600160a01b0384811660048301529091169063efd4606590602401602060405180830381865afa158015610924573d6000803e3d6000fd5b505050506040513d601f19601f820116820180604052508101906108d39190610c25565b634e487b7160e01b600052604160045260246000fd5b600082601f83011261096f57600080fd5b813567ffffffffffffffff8082111561098a5761098a610948565b604051601f8301601f19908116603f011681019082821181831017156109b2576109b2610948565b816040528381528660208588010111156109cb57600080fd5b836020870160208301376000602085830101528094505050505092915050565b600080600080600060a08688031215610a0357600080fd5b853567ffffffffffffffff80821115610a1b57600080fd5b610a2789838a0161095e565b96506020880135915080821115610a3d57600080fd5b610a4989838a0161095e565b95506040880135915080821115610a5f57600080fd5b610a6b89838a0161095e565b94506060880135915080821115610a8157600080fd5b50610a8e8882890161095e565b95989497509295608001359392505050565b600080600060608486031215610ab557600080fd5b833567ffffffffffffffff80821115610acd57600080fd5b610ad98783880161095e565b94506020860135915080821115610aef57600080fd5b50610afc8682870161095e565b925050604084013590509250925092565b600060208284031215610b1f57600080fd5b5035919050565b60008060408385031215610b3957600080fd5b823567ffffffffffffffff80821115610b5157600080fd5b610b5d8683870161095e565b93506020850135915080821115610b7357600080fd5b50610b808582860161095e565b9150509250929050565b80356001600160a01b0381168114610ba157600080fd5b919050565b60008060408385031215610bb957600080fd5b610bc283610b8a565b946020939093013593505050565b600060208284031215610be257600080fd5b6108d082610b8a565b600060208284031215610bfd57600080fd5b5051919050565b818103818111156108d357634e487b7160e01b600052601160045260246000fd5b600060208284031215610c3757600080fd5b81518015158114610c4757600080fd5b9392505050565b6000815180845260005b81811015610c7457602081850181015186830182015201610c58565b506000602082860101526020601f19601f83011685010191505092915050565b6001600160a01b0384168152606060208201819052600090610cb890830185610c4e565b8281036040840152610cca8185610c4e565b9695505050505050565b6001600160a01b0385168152608060208201819052600090610cf890830186610c4e565b8281036040840152610d0a8186610c4e565b9150508260608301529594505050505056fea2646970667358221220a64ad668c8260bcb839809ad40a6d43765f668b7d48671ce732c996444d2716964736f6c63430008140033608060405234801561001057600080fd5b50610d0f806100206000396000f3fe608060405234801561001057600080fd5b50600436106100625760003560e01c806311c0036c1461006757806312588c171461008357806382675a6f14610098578063933166e1146100ab578063a0210309146100cf578063efd46065146100ef575b600080fd5b61007060015481565b6040519081526020015b60405180910390f35b61009661009136600461094b565b61012e565b005b6100966100a63660046109bf565b61037d565b6100be6100b9366004610a23565b61052a565b60405161007a959493929190610a8b565b6100e26100dd366004610a23565b610677565b60405161007a9190610ad9565b61011e6100fd366004610a23565b6001600160a01b031660009081526020819052604090206004015460ff1690565b604051901515815260200161007a565b600082511161017f5760405162461bcd60e51b8152602060048201526018602482015277557365726e616d652063616e6e6f7420626520656d70747960401b60448201526064015b60405180910390fd5b6032825111156101c55760405162461bcd60e51b8152602060048201526011602482015270557365726e616d6520746f6f206c6f6e6760781b6044820152606401610176565b6101f4815111156102075760405162461bcd60e51b815260206004820152600c60248201526b42696f20746f6f206c6f6e6760a01b6044820152606401610176565b6001600160a01b03831660009081526020819052604090206004015460ff16156102735760405162461bcd60e51b815260206004820152601a60248201527f43726561746f7220616c726561647920726567697374657265640000000000006044820152606401610176565b6040805160a08101825283815260208082018490526001600160a01b0386168284018190524260608401526001608084015260009081529081905291909120815181906102c09082610bd0565b50602082015160018201906102d59082610bd0565b5060408201516002820180546001600160a01b0319166001600160a01b03909216919091179055606082015160038201556080909101516004909101805460ff19169115159190911790556001805490600061033083610c90565b9190505550826001600160a01b03167fbf620853fd890bc166209817a64206f57de9aa2bc196bd5bab92d17a38d6515d8342604051610370929190610cb7565b60405180910390a2505050565b3360009081526020819052604090206004015460ff166103d85760405162461bcd60e51b815260206004820152601660248201527510dc99585d1bdc881b9bdd081c9959da5cdd195c995960521b6044820152606401610176565b60008251116104245760405162461bcd60e51b8152602060048201526018602482015277557365726e616d652063616e6e6f7420626520656d70747960401b6044820152606401610176565b60328251111561046a5760405162461bcd60e51b8152602060048201526011602482015270557365726e616d6520746f6f206c6f6e6760781b6044820152606401610176565b6101f4815111156104ac5760405162461bcd60e51b815260206004820152600c60248201526b42696f20746f6f206c6f6e6760a01b6044820152606401610176565b3360009081526020819052604090206104c58382610bd0565b503360009081526020819052604090206001016104e28282610bd0565b50336001600160a01b03167f047e876438a6eedbcf33c1be7c8074932e9a0d6773f6610d1be06940d7bdfe42834260405161051e929190610cb7565b60405180910390a25050565b60006020819052908152604090208054819061054590610b47565b80601f016020809104026020016040519081016040528092919081815260200182805461057190610b47565b80156105be5780601f10610593576101008083540402835291602001916105be565b820191906000526020600020905b8154815290600101906020018083116105a157829003601f168201915b5050505050908060010180546105d390610b47565b80601f01602080910402602001604051908101604052809291908181526020018280546105ff90610b47565b801561064c5780601f106106215761010080835404028352916020019161064c565b820191906000526020600020905b81548152906001019060200180831161062f57829003601f168201915b505050506002830154600384015460049094015492936001600160a01b039091169290915060ff1685565b6106b46040518060a00160405280606081526020016060815260200160006001600160a01b03168152602001600081526020016000151581525090565b6001600160a01b03821660009081526020819052604090206004015460ff166107135760405162461bcd60e51b815260206004820152601160248201527010dc99585d1bdc881b9bdd08199bdd5b99607a1b6044820152606401610176565b6001600160a01b03821660009081526020819052604090819020815160a0810190925280548290829061074590610b47565b80601f016020809104026020016040519081016040528092919081815260200182805461077190610b47565b80156107be5780601f10610793576101008083540402835291602001916107be565b820191906000526020600020905b8154815290600101906020018083116107a157829003601f168201915b505050505081526020016001820180546107d790610b47565b80601f016020809104026020016040519081016040528092919081815260200182805461080390610b47565b80156108505780601f1061082557610100808354040283529160200191610850565b820191906000526020600020905b81548152906001019060200180831161083357829003601f168201915b505050918352505060028201546001600160a01b031660208201526003820154604082015260049091015460ff16151560609091015292915050565b80356001600160a01b03811681146108a357600080fd5b919050565b634e487b7160e01b600052604160045260246000fd5b600082601f8301126108cf57600080fd5b813567ffffffffffffffff808211156108ea576108ea6108a8565b604051601f8301601f19908116603f01168101908282118183101715610912576109126108a8565b8160405283815286602085880101111561092b57600080fd5b836020870160208301376000602085830101528094505050505092915050565b60008060006060848603121561096057600080fd5b6109698461088c565b9250602084013567ffffffffffffffff8082111561098657600080fd5b610992878388016108be565b935060408601359150808211156109a857600080fd5b506109b5868287016108be565b9150509250925092565b600080604083850312156109d257600080fd5b823567ffffffffffffffff808211156109ea57600080fd5b6109f6868387016108be565b93506020850135915080821115610a0c57600080fd5b50610a19858286016108be565b9150509250929050565b600060208284031215610a3557600080fd5b610a3e8261088c565b9392505050565b6000815180845260005b81811015610a6b57602081850181015186830182015201610a4f565b506000602082860101526020601f19601f83011685010191505092915050565b60a081526000610a9e60a0830188610a45565b8281036020840152610ab08188610a45565b6001600160a01b0396909616604084015250506060810192909252151560809091015292915050565b602081526000825160a06020840152610af560c0840182610a45565b90506020840151601f19848303016040850152610b128282610a45565b91505060018060a01b036040850151166060840152606084015160808401526080840151151560a08401528091505092915050565b600181811c90821680610b5b57607f821691505b602082108103610b7b57634e487b7160e01b600052602260045260246000fd5b50919050565b601f821115610bcb57600081815260208120601f850160051c81016020861015610ba85750805b601f850160051c820191505b81811015610bc757828155600101610bb4565b5050505b505050565b815167ffffffffffffffff811115610bea57610bea6108a8565b610bfe81610bf88454610b47565b84610b81565b602080601f831160018114610c335760008415610c1b5750858301515b600019600386901b1c1916600185901b178555610bc7565b600085815260208120601f198616915b82811015610c6257888601518255948401946001909101908401610c43565b5085821015610c805787850151600019600388901b60f8161c191681555b5050505050600190811b01905550565b600060018201610cb057634e487b7160e01b600052601160045260246000fd5b5060010190565b604081526000610cca6040830185610a45565b9050826020830152939250505056fea2646970667358221220ec0264726b977094c39ee71c85c2af82d75e27e9ff9a35ccae4fb3f3900fc03664736f6c634300081400336080604052600160035534801561001557600080fd5b50611445806100256000396000f3fe6080604052600436106100a75760003560e01c8063b5ecf91211610064578063b5ecf91214610188578063bf2d9e0b146101bb578063c1d89f2d146101d1578063c6530e41146101f1578063c82d3a5514610221578063f2d0811f1461025c57600080fd5b8063011c6756146100ac5780630a248d7f146100e25780630b7ad54c1461010657806326d38f0314610133578063401a96851461014857806387a38dbe14610168575b600080fd5b3480156100b857600080fd5b506100cc6100c7366004610f13565b61027c565b6040516100d99190610f35565b60405180910390f35b3480156100ee57600080fd5b506100f860035481565b6040519081526020016100d9565b34801561011257600080fd5b50610126610121366004610f79565b6102e8565b6040516100d99190610fd8565b61014661014136600461105b565b6104f3565b005b34801561015457600080fd5b506100f861016336600461105b565b610914565b34801561017457600080fd5b50610146610183366004611085565b610945565b34801561019457600080fd5b506101a86101a3366004610f79565b610a64565b6040516100d997969594939291906110a7565b3480156101c757600080fd5b506100f860045481565b3480156101dd57600080fd5b506100f86101ec3660046111a8565b610bbe565b3480156101fd57600080fd5b5061021161020c36600461105b565b610e00565b60405190151581526020016100d9565b34801561022d57600080fd5b5061021161023c36600461105b565b600160209081526000928352604080842090915290825290205460ff1681565b34801561026857600080fd5b50610146610277366004610f79565b610e5b565b6001600160a01b0381166000908152600260209081526040918290208054835181840281018401909452808452606093928301828280156102dc57602002820191906000526020600020905b8154815260200190600101908083116102c8575b50505050509050919050565b6103336040518060e001604052806000815260200160006001600160a01b03168152602001606081526020016060815260200160008152602001600081526020016000151581525090565b60008281526020819052604090206006015460ff1661036d5760405162461bcd60e51b815260040161036490611224565b60405180910390fd5b60008281526020818152604091829020825160e0810184528154815260018201546001600160a01b03169281019290925260028101805492939192918401916103b59061124f565b80601f01602080910402602001604051908101604052809291908181526020018280546103e19061124f565b801561042e5780601f106104035761010080835404028352916020019161042e565b820191906000526020600020905b81548152906001019060200180831161041157829003601f168201915b505050505081526020016003820180546104479061124f565b80601f01602080910402602001604051908101604052809291908181526020018280546104739061124f565b80156104c05780601f10610495576101008083540402835291602001916104c0565b820191906000526020600020905b8154815290600101906020018083116104a357829003601f168201915b5050509183525050600482015460208201526005820154604082015260069091015460ff16151560609091015292915050565b600081815260208181526040808320815160e0810183528154815260018201546001600160a01b03169381019390935260028101805491928401916105379061124f565b80601f01602080910402602001604051908101604052809291908181526020018280546105639061124f565b80156105b05780601f10610585576101008083540402835291602001916105b0565b820191906000526020600020905b81548152906001019060200180831161059357829003601f168201915b505050505081526020016003820180546105c99061124f565b80601f01602080910402602001604051908101604052809291908181526020018280546105f59061124f565b80156106425780601f1061061757610100808354040283529160200191610642565b820191906000526020600020905b81548152906001019060200180831161062557829003601f168201915b5050509183525050600482015460208201526005820154604082015260069091015460ff16151560609091015260c08101519091506106c35760405162461bcd60e51b815260206004820152601d60248201527f436f6e74656e74206e6f7420666f756e64206f7220696e6163746976650000006044820152606401610364565b806080015134101561070e5760405162461bcd60e51b8152602060048201526014602482015273125b9cdd59999a58da595b9d081c185e5b595b9d60621b6044820152606401610364565b6001600160a01b038316600090815260016020908152604080832085845290915290205460ff16156107765760405162461bcd60e51b8152602060048201526011602482015270105b1c9958591e481c1d5c98da185cd959607a1b6044820152606401610364565b80602001516001600160a01b0316836001600160a01b0316036107e95760405162461bcd60e51b815260206004820152602560248201527f43726561746f72732063616e6e6f7420627579207468656972206f776e20636f6044820152641b9d195b9d60da1b6064820152608401610364565b6001600160a01b0380841660009081526001602081815260408084208785528252808420805460ff19169093179092558401516080850151915193169281156108fc0292818181858888f1935050505015801561084a573d6000803e3d6000fd5b50806080015160046000828254610861919061129f565b909155505060808101513411156108b957826001600160a01b03166108fc82608001513461088f91906112b2565b6040518115909202916000818181858888f193505050501580156108b7573d6000803e3d6000fd5b505b80602001516001600160a01b0316836001600160a01b0316837fc811c19bfae6d1db7d73b36678b8cdd72e1617d50e39f87a7593c5079381fd28846080015160405161090791815260200190565b60405180910390a4505050565b6002602052816000526040600020818154811061093057600080fd5b90600052602060002001600091509150505481565b6000828152602081905260409020600681015460ff166109775760405162461bcd60e51b815260040161036490611224565b60018101546001600160a01b031633146109d35760405162461bcd60e51b815260206004820152601760248201527f4f6e6c792063726561746f722063616e207570646174650000000000000000006044820152606401610364565b60008211610a235760405162461bcd60e51b815260206004820152601c60248201527f5072696365206d7573742062652067726561746572207468616e2030000000006044820152606401610364565b6004810182905560405182815283907fe76606b9d4b8687899b722bffc2b3381298f848f245f2c545da7fd5d62d7a8259060200160405180910390a2505050565b60006020819052908152604090208054600182015460028301805492936001600160a01b0390921692610a969061124f565b80601f0160208091040260200160405190810160405280929190818152602001828054610ac29061124f565b8015610b0f5780601f10610ae457610100808354040283529160200191610b0f565b820191906000526020600020905b815481529060010190602001808311610af257829003601f168201915b505050505090806003018054610b249061124f565b80601f0160208091040260200160405190810160405280929190818152602001828054610b509061124f565b8015610b9d5780601f10610b7257610100808354040283529160200191610b9d565b820191906000526020600020905b815481529060010190602001808311610b8057829003601f168201915b50505050600483015460058401546006909401549293909290915060ff1687565b600080845111610c085760405162461bcd60e51b81526020600482015260156024820152745469746c652063616e6e6f7420626520656d70747960581b6044820152606401610364565b6000835111610c595760405162461bcd60e51b815260206004820152601c60248201527f436f6e74656e7420686173682063616e6e6f7420626520656d707479000000006044820152606401610364565b60008211610ca95760405162461bcd60e51b815260206004820152601c60248201527f5072696365206d7573742062652067726561746572207468616e2030000000006044820152606401610364565b6003546040805160e0810182528281526001600160a01b0388811660208084019182528385018a8152606085018a9052608085018990524260a0860152600160c086018190526000888152928390529590912084518155915194820180546001600160a01b031916959093169490941790915591519091906002820190610d309082611314565b5060608201516003820190610d459082611314565b506080820151600482015560a0820151600582015560c0909101516006909101805460ff19169115159190911790556001600160a01b038616600090815260026020908152604082208054600181018255908352908220018290556003805491610dae836113d4565b9190505550856001600160a01b0316817f412c27a7318aac9979dd1ff80a6b3eb3bc35c9a8c22b7b75d7959605180ab9ac8786604051610def9291906113ed565b60405180910390a395945050505050565b6000818152602081905260408120600101546001600160a01b03808516911603610e2c57506001610e55565b506001600160a01b038216600090815260016020908152604080832084845290915290205460ff165b92915050565b6000818152602081905260409020600681015460ff16610e8d5760405162461bcd60e51b815260040161036490611224565b60018101546001600160a01b03163314610ee95760405162461bcd60e51b815260206004820152601b60248201527f4f6e6c792063726561746f722063616e206465616374697661746500000000006044820152606401610364565b600601805460ff1916905550565b80356001600160a01b0381168114610f0e57600080fd5b919050565b600060208284031215610f2557600080fd5b610f2e82610ef7565b9392505050565b6020808252825182820181905260009190848201906040850190845b81811015610f6d57835183529284019291840191600101610f51565b50909695505050505050565b600060208284031215610f8b57600080fd5b5035919050565b6000815180845260005b81811015610fb857602081850181015186830182015201610f9c565b506000602082860101526020601f19601f83011685010191505092915050565b602081528151602082015260018060a01b0360208301511660408201526000604083015160e06060840152611011610100840182610f92565b90506060840151601f1984830301608085015261102e8282610f92565b915050608084015160a084015260a084015160c084015260c0840151151560e08401528091505092915050565b6000806040838503121561106e57600080fd5b61107783610ef7565b946020939093013593505050565b6000806040838503121561109857600080fd5b50508035926020909101359150565b8781526001600160a01b038716602082015260e0604082018190526000906110d190830188610f92565b82810360608401526110e38188610f92565b6080840196909652505060a0810192909252151560c090910152949350505050565b634e487b7160e01b600052604160045260246000fd5b600082601f83011261112c57600080fd5b813567ffffffffffffffff8082111561114757611147611105565b604051601f8301601f19908116603f0116810190828211818310171561116f5761116f611105565b8160405283815286602085880101111561118857600080fd5b836020870160208301376000602085830101528094505050505092915050565b600080600080608085870312156111be57600080fd5b6111c785610ef7565b9350602085013567ffffffffffffffff808211156111e457600080fd5b6111f08883890161111b565b9450604087013591508082111561120657600080fd5b506112138782880161111b565b949793965093946060013593505050565b60208082526011908201527010dbdb9d195b9d081b9bdd08199bdd5b99607a1b604082015260600190565b600181811c9082168061126357607f821691505b60208210810361128357634e487b7160e01b600052602260045260246000fd5b50919050565b634e487b7160e01b600052601160045260246000fd5b80820180821115610e5557610e55611289565b81810381811115610e5557610e55611289565b601f82111561130f57600081815260208120601f850160051c810160208610156112ec5750805b601f850160051c820191505b8181101561130b578281556001016112f8565b5050505b505050565b815167ffffffffffffffff81111561132e5761132e611105565b6113428161133c845461124f565b846112c5565b602080601f831160018114611377576000841561135f5750858301515b600019600386901b1c1916600185901b17855561130b565b600085815260208120601f198616915b828110156113a657888601518255948401946001909101908401611387565b50858210156113c45787850151600019600388901b60f8161c191681555b5050505050600190811b01905550565b6000600182016113e6576113e6611289565b5060010190565b6040815260006114006040830185610f92565b9050826020830152939250505056fea264697066735822122033a17244f7d5a5e7a21283a03a64223e487a1e4dcdf1a0fc102274b007de843364736f6c63430008140033",
  "linkReferences": {},
  "deployedLinkReferences": {}
}